:020000040800F2
:100000003804002045010008D1070008C90700088E
:10001000CD0700088D0100088D10000800000000C9
:10002000000000000000000000000000950900082A
:10003000ED010008000000007D080008810A0008AA
:100040005F0100085F0100085F0100085F01000810
:100050005F0100085F0100085F0100085F01000800
:100060005F0100085F0100085F0100085F010008F0
:100070005F0100085F0100085F0100085F010008E0
:100080005F0100085F0100085F0100085F010008D0
:100090005F0100085F0100085F0100085F010008C0
:1000A0005F0100085F0100085F0100085F010008B0
:1000B000E50A00085F0100085F0100085F01000811
:1000C0005F0100085F0100085F0100085F01000890
:1000D0005F0100085F0100085F0100085F01000880
:1000E0005F0100085F0100085F0100085F01000870
:1000F0005F0100085F0100085F0100085F01000860
:100100005F0100085F0100085F0100085F0100084F
:100110005F0100085F0100085F0100085F0100083F
:100120005F0100085F0100085F0100085F0100082F
:10013000DFF80CD000F018F800480047B1100008B4
:10014000380400200648804706480047FEE7FEE7DF
:10015000FEE7FEE7FEE7FEE7FEE7FEE7FEE7FEE777
:10016000850A000831010008064C074D06E0E068EA
:1001700040F0010394E8070098471034AC42F6D3EE
:10018000FFF7DAFFD8100008F810000800BFFEE7FC
:1001900010B50446204600F037F804F10A0000F0DC
:1001A00041F8204600F066F8204600F06FF810BDD8
:1001B00010B50446204600F01BF8204600F03EF83B
:1001C000204600F049F8204600F06CF810BD10B54C
:1001D0000446204600F018F8204600F02FF820468C
:1001E00000F048F8204600F05DF810BD70470000B0
:1001F00010B504460421034800F0DAFA204600F066
:10020000CBF910BD0008014010B504460421044894
:1002100000F0D0FAC4F1640000F0BEF910BD000097
:100220000008014010B504462021034800F0C0FA40
:10023000204600F00BFA10BD0008014010B504463E
:100240002021044800F0B6FAC4F1640000F0FEF981
:1002500010BD00000008014010B504460821044804
:1002600000F0A8FAC4F1640000F0B4F910BD000079
:100270000008014010B504460821034800F098FA30
:10028000204600F0A7F910BD0008014010B5044653
:100290001021034800F08CFA204600F0B9F910BD97
:1002A0000008014010B504461021044800F082FA0D
:1002B000C4F1640000F0ACF910BD0000000801407A
:1002C00008B50121042000F0EBFA10208DF803009E
:1002D0000420ADF8000003208DF8020069461148A3
:1002E00000F0D2F90820ADF8000003208DF80200DC
:1002F00069460C4800F0C8F91020ADF80000032052
:100300008DF802006946074800F0BEF92020ADF8DC
:10031000000003208DF802006946024800F0B4F99D
:1003200008BD00000008014008B50121082000F0C8
:10033000B7FAF420ADF8000028208DF80300032060
:100340008DF80200684600F037FA08BD10B50421A8
:10035000334800F024FA334908608021304800F027
:100360001EFA3149086010212D4800F018FA2F4973
:10037000086020212A4800F012FA2D490860402127
:10038000274800F00CFA2B4908602648006801282D
:1003900000D100E0002027490968012900D100E0D0
:1003A0000021084028B11E20FFF711FF012022493B
:1003B00008601C480068012800D100E000201B49AB
:1003C000096809B9012100E00021084019490968BC
:1003D00009B9012100E00021084028B14620FFF7BB
:1003E000E7FE0220144908600E48006808B90120A1
:1003F00000E000200D49096809B9012100E0002151
:1004000008400C490968012900D100E0002108409A
:1004100028B13220FFF7BCFE03200749086010BD59
:10042000000C0140180000201C00002020000020CB
:1004300024000020280000203000002010B500F02B
:1004400095F800F06BF810BD10B500F003F800F05F
:100450004BF810BD08B50121042000F021FA40201E
:10046000ADF8000018208DF8030003208DF802007D
:1004700069461B4800F008F90121042000F010FA39
:100480008020ADF8000018208DF8030003208DF8BF
:1004900002006946124800F0F7F80121082000F038
:1004A000FFF90120ADF8000018208DF803000320AB
:1004B0008DF8020069460B4800F0E6F8012108209B
:1004C00000F0EEF90220ADF8000018208DF80300CE
:1004D00003208DF802006946024800F0D5F808BDF7
:1004E00000080140000C01400EB50121022000F07F
:1004F000C7F96320ADF804004720ADF800000020E4
:10050000ADF80600ADF802008DF808006946024813
:1005100000F084FC0EBD0000000400400EB5012177
:10052000084600F0ADF940F2E730ADF8040047208E
:10053000ADF800000020ADF80600ADF802008DF81F
:1005400008006946084800F069FC0121064800F0EF
:10055000DDFA01221146044800F0FBFA01210248AD
:1005600000F0DAFA0EBD0000002C014008B54FF48F
:10057000E06000F079F91C208DF8000000208DF873
:10058000010003208DF8020001208DF80300684669
:1005900000F032F908BD00007FB50446A5B2602026
:1005A000ADF800000120ADF802000020ADF8080011
:1005B000ADF806506946064800F0D4FA0821044810
:1005C00000F01CFB0121024800F0A6FA7FBD0000EC
:1005D000000400407FB50446A5B26020ADF80000DD
:1005E0000120ADF802000020ADF80800ADF806507B
:1005F0006946064800F00CFB0821044800F05AFB4D
:100600000121024800F088FA7FBD0000000400408C
:100610007FB50446A5B26020ADF800000120ADF81A
:1006200002000020ADF80800ADF806506946064803
:1006300000F04EFB0821044800F09AFB012102481B
:1006400000F06AFA7FBD0000000400407FB5044658
:10065000A5B26020ADF800000120ADF80200002036
:10066000ADF80800ADF806506946064800F08AFB70
:100670000821044800F0C4FB0121024800F04CFAB4
:100680007FBD0000000400402DE9F0410246002536
:100690000026002000230024002791F803C00CF05E
:1006A0000F0591F803C00CF0100CBCF1000F03D043
:1006B00091F802C04CEA050591F800C0BCF1000FAA
:1006C00031D0146800202BE04FF0010C0CFA00F33D
:1006D000B1F800C00CEA03069E4220D183004FF01F
:1006E0000F0C0CFA03F7BC4305FA03FC4CEA0404B4
:1006F00091F803C0BCF1280F06D14FF0010C0CFAA1
:1007000000FCC2F814C00AE091F803C0BCF1480F25
:1007100005D14FF0010C0CFA00FCC2F810C0401CCF
:100720000828D1D31460B1F800C0BCF1FF0F34DD4C
:10073000546800202EE000F1080C4FF0010808FA80
:100740000CF3B1F800C00CEA03069E4221D18300ED
:100750004FF00F0C0CFA03F7BC4305FA03FC4CEA0C
:10076000040491F803C0BCF1280F05D100F1080C76
:1007700008FA0CF8C2F8148091F803C0BCF1480FD5
:1007800007D100F1080C4FF0010808FA0CF8C2F884
:100790001080401C0828CED35460BDE8F08102468A
:1007A000002093680B400BB1012000E0002070474F
:1007B00041617047016170474FF6FF71018002216E
:1007C00081700421C170704700BFFEE700BFFEE7E3
:1007D000704708B54FF4A06000F046F827208DF868
:1007E000000001208DF801008DF802008DF8030053
:1007F000684600F001F808BD70B5002100230F2203
:10080000C47804B3154C246804F4E064C4F5E064CF
:10081000210AC1F10403CA40447804FA03F1847840
:100820001440214309010E4C0678A155047804F0C8
:100830001F050124AC4005786D11AD0005F1E025E0
:10084000C5F8004109E0047804F01F050124AC401C
:10085000044D0678761145F8264070BD0CED00E099
:1008600000E400E080E100E002490143024A116037
:10087000704700000000FA050CED00E07047000032
:1008800029B1064AD2690243044BDA6104E0034A03
:10089000D2698243014BDA617047000000100240C8
:1008A00029B1064A92690243044B9A6104E0034A63
:1008B00092698243014B9A61704700000010024028
:1008C00030B500210022002400232D4D6D6805F075
:1008D0000C0121B1042905D0082923D105E0294DB7
:1008E000056022E0274D05601FE0254D6D6805F489
:1008F0007012234D6D6805F48034022505EB924299
:100900001CB9214D554305600BE01D4D6D6805F484
:1009100000351DB11C4D5543056002E0194D55438E
:10092000056002E0174D056000BF00BF144D6D6803
:1009300005F0F0010909154D6B5C0568DD40456067
:100940000F4D6D6805F4E061090A104D6B5C456858
:10095000DD4085600A4D6D6805F46051C90A0B4D94
:100960006B5C4568DD40C560054D6D6805F4404130
:10097000890B074D6B5CC568B5FBF3F5056130BDB0
:100980000010024000127A0000093D000000002023
:1009900010000020704710B500F002F810BD0000F4
:1009A0000CB50020019000903348006840F480307E
:1009B0003149086000BF3048006800F40030009002
:1009C0000198401C0190009818B90198B0F5A06FEB
:1009D000F1D12948006800F4003010B101200090E6
:1009E00001E0002000900098012843D123480068CE
:1009F00040F01000214908600846006820F003001C
:100A000008600846006840F0020008601A48406824
:100A1000194948600846406848600846406840F404
:100A2000806048600846406820F47C1048600846B2
:100A3000406840F4E81048600846006840F0807064
:100A4000086000BF0C48006800F000700028F9D072
:100A50000948406820F0030007494860084640689C
:100A600040F00200486000BF0348406800F00C00FE
:100A70000828F9D10CBD00000010024000200240FF
:100A80007047000010B51348006840F0010011499C
:100A9000086008464068104908400E49486008460A
:100AA00000680E4908400B4908600846006820F4B9
:100AB000802008600846406820F4FE0048604FF43B
:100AC0001F008860FFF767FF4FF00060044908606F
:100AD00010BD0000001002400000FFF8FFFFF6FE0E
:100AE00008ED00E010B50121064800F021F840B102
:100AF00005480068401C044908600121014800F0D5
:100B000008F810BD002C014014000020CA430282E6
:100B10007047CA430282704721B1028842F0010245
:100B2000028004E002884FF6FE731A40028070478C
:100B300030B50246002000230024158A05EA01038F
:100B4000958905EA010413B10CB1012000E00020F1
:100B500030BD1AB183890B43838102E083898B43C3
:100B60008381704770B5002400220023058C4FF666
:100B7000FE7635400584028C8388048B4FF68F7592
:100B80002C40B51E2C400D882C43751E2A400D8923
:100B90002A434D882A43144DA8420BD0134DA84236
:100BA00008D0134DA84205D0124DA84202D0124DD4
:100BB000A84213D14FF6F7752A404D892A434FF6C4
:100BC000FB752A408D882A434FF6FF652B404FF670
:100BD000FF552B408D892B43CD892B438380048384
:100BE000CD888586028470BD002C01400034014010
:100BF0000040014000440140004801400A460021F5
:100C0000018B4FF6F77319401143018370470000C1
:100C100070B5002400220023058C4FF6EF76354096
:100C20000584028C8388048B48F6FF752C404FF6B0
:100C3000FF452C400D884FF6FF7606EA05252C432C
:100C40004FF6DF752A400D8906EA05152A434D88BF
:100C500006EA05152A43154DA84202D0144DA842B4
:100C60001DD14FF67F752A404D894FF6FF7606EA73
:100C700005152A434FF6BF752A408D8806EA0515EB
:100C80002A434FF6FF352B404FF2FF752B408D89DD
:100C900006EA85052B43CD8906EA85052B4383802B
:100CA0000483CD880587028470BD0000002C0140BC
:100CB000003401400A460021018B4FF2FF731940B6
:100CC0004FF6FF7303EA02231943018370470000C4
:100CD00070B5002400220023058C4FF6FF663540D6
:100CE0000584028C8388848B4FF68F752C404FF6D9
:100CF000FC752C400D882C434FF6FF552A400D897A
:100D00004FF6FF7606EA05252A434D8806EA0525B3
:100D10002A43154DA84202D0144DA8421DD14FF2CE
:100D2000FF752A404D894FF6FF7606EA05252A43CE
:100D30004FF6FF352A408D8806EA05252A434EF6F0
:100D4000FF752B404DF6FF752B408D8906EA051582
:100D50002B43CD8906EA05152B4383808483CD88F8
:100D60008587028470BD0000002C014000340140E2
:100D70000A460021818B4FF6F77319401143818396
:100D80007047000070B5002200230024058C4EF649
:100D9000FF7635400584038C8488828B48F6FF7586
:100DA0002A404FF6FF452A400D884FF6FF7606EAA7
:100DB00005252A434DF6FF752B400D8906EA0535BA
:100DC0002B434D8806EA05352B430B4DA84202D034
:100DD0000A4DA84208D14BF6FF752C408D894FF67D
:100DE000FF7606EA85152C4384808283CD88A0F89F
:100DF0004050038470BD0000002C014000340140CD
:100E00000A460021818B4FF2FF7319404FF6FF73A2
:100E100003EA0223194381837047000000220288FD
:100E20001D4B98420ED01D4B98420BD0B0F1804F15
:100E300008D01B4B984205D01A4B984202D01A4B4F
:100E4000984204D14FF68F731A404B881A43174BC0
:100E5000984207D0164B984204D04FF6FF431A40F1
:100E6000CB881A4302808B8883850B8803850A4BC5
:100E700098420BD0094B984208D00E4B984205D0AF
:100E80000D4B984202D00D4B984201D10B7A03864C
:100E90000123838270470000002C01400034014090
:100EA0000004004000080040000C0040001000401A
:100EB000001400400040014000440140004801404F
:100EC00021B1828942F40052828104E082894DF688
:100ED000FF731A408281704700B585B00121082058
:100EE000FFF7DEFC01218804FFF7CAFC4FF48060A5
:100EF000ADF8100018208DF8130003208DF81200B3
:100F000004A91748FFF7C0FB4FF40060ADF81000CC
:100F100004208DF8130004A91148FFF7B5FB4FF426
:100F2000E13000900020ADF80400ADF80600ADF807
:100F30000800ADF80C000C20ADF80A00694609481D
:100F400000F038F8FFF745FC012240F22551054832
:100F500000F00AF801210348FFF7B2FF05B000BD19
:100F6000000C014000480040F0B503460024002674
:100F70000025002040F66A17B94200D100BF18468C
:100F8000C1F3421401F01F06012707FA06F5012CF0
:100F900001D10C3004E0022C01D1103000E01430FB
:100FA0001AB107682F43076002E00768AF43076084
:100FB000F0BD00002DE9F04786B005460E4600243E
:100FC000A24600BFA1460027B08900B100BF2F464E
:100FD0002C8A4CF6FF700440F08804432C82AC89C4
:100FE0004EF6F3100440B0883189084371890843F4
:100FF0000443AC81AC8A4FF6FF400440B0890443FF
:10100000AC8201A8FFF75CFC1F48874202D1DDF8E3
:1010100010A001E0DDF80CA0A88900F4004040B168
:101020000AEBCA0000EB0A1031684900B0FBF1F886
:1010300007E00AEBCA0000EB0A1031688900B0FB38
:10104000F1F86420B8FBF0F004012009642101FBF1
:101050001089A88900F4004040B1322000EBC9009B
:10106000B0FBF1F000F00700044308E0322000EB91
:1010700009106421B0FBF1F000F00F0004432C8153
:1010800006B0BDE8F08700000038014000BFFEE771
:1010900002E008C8121F08C1002AFAD17047704741
:1010A000002001E001C1121F002AFBD1704700009F
:1010B000FFF706F9FFF7C2F9FFF7C6F9FFF70CFFD4
:1010C000FFF732F905E000200249086000BFFFF792
:1010D0003DF9F8E714000020F81000080000002097
:1010E000380000009010000830110008380000207F
:1010F00000040000A010000800000000010203042A
:1011000001020304060708090204060800000000A3
:1011100001000000010000000100000001000000CB
:1011200001000000000000000000000001000000BD
:0400000508000131BD
:00000001FF
